:020000040800F2
:1000000000100020C52A0008412A0008432A0008E1
:1000100000000000000000000000000000000000E0
:10002000000000000000000000000000452A000859
:100030000000000000000000472A0008492A0008CC
:10004000152B000800000000552A0008152B000899
:10005000152B0008152B0008152B0008152B000880
:1000600000000000152B0008152B0008152B0008B8
:10007000152B0008152B0008152B000800000000A8
:10008000152B00080000000000000000152B0008E0
:1000900000000000152B0008152B0008152B000888
:1000A00000000000152B000800000000152B0008C0
:1000B0000000000000000000000000000000000040
:1000C00010B5064C2378002B07D1054B002B02D02E
:1000D000044800E000BF0123237010BD7000002021
:1000E00000000000D4330008044B10B5002B03D0EF
:1000F0000349044800E000BF10BDC04600000000F6
:1001000074000020D4330008002243088B4274D3CB
:1001100003098B425FD3030A8B4244D3030B8B4208
:1001200028D3030C8B420DD3FF22090212BA030C11
:100130008B4202D31212090265D0030B8B4219D3F2
:1001400000E0090AC30B8B4201D3CB03C01A524112
:10015000830B8B4201D38B03C01A5241430B8B425A
:1001600001D34B03C01A5241030B8B4201D30B0343
:10017000C01A5241C30A8B4201D3CB02C01A52416A
:10018000830A8B4201D38B02C01A5241430A8B422D
:1001900001D34B02C01A5241030A8B4201D30B0216
:1001A000C01A5241CDD2C3098B4201D3CB01C01A30
:1001B000524183098B4201D38B01C01A524143093A
:1001C0008B4201D34B01C01A524103098B4201D328
:1001D0000B01C01A5241C3088B4201D3CB00C01A95
:1001E000524183088B4201D38B00C01A524143080D
:1001F0008B4201D34B00C01A5241411A00D2014632
:10020000524110467047FFE701B5002000F006F8A4
:1002100002BDC0460029F7D076E770477047C04658
:1002200010B5040001F04EF8FA218900FFF76CFFC9
:1002300000F008FA012000222100404200F0C8F935
:10024000002010BD1023064A10B5116800200B4392
:100250001360FFF7E5FF02F06DFB002010BDC04604
:1002600000200240024A1368013313607047C04601
:10027000A0040020014B18687047C046A00400206D
:1002800037B50190FFF7F6FF019C0500631C5A1E6D
:100290009341E418FFF7EEFF401BA042FAD337BDAD
:1002A000002373B503210193036804009A680A4090
:1002B000012A07D11968114201D0002076BDDA6801
:1002C0001204FAD49968194A114208D01023012067
:1002D000626C13436364A36C0343A364EEE70122DF
:1002E00099680A439A60124B12491868FFF70CFF8D
:1002F0000190019B002B15D1FFF7BCFF01250600E3
:1003000023681B682B42D8D1FFF7B4FF801B02285B
:10031000F6D91023626C012013436364A36C2B4352
:10032000A364CBE7019B013B0193E2E71700008048
:100330000800002040420F00F8B504000120002C06
:1003400072D0636C002B06D122004032A3642000DF
:10035000137002F017FB636CDB0600D579E0042212
:1003600023689868104000D073E0626C42491140E5
:1003700002220A43032162649A680A40012A00D0DB
:100380006DE01968114202D1DA68120467D5DA68A3
:100390003A49256A0A40DA60A2696F039103E2696B
:1003A000D2031143626B013A561EB2411603E26852
:1003B000114322690F43022A00D10420226B616A93
:1003C00052003A4332430243012904D1002D2CD17B
:1003D000802149020A43C220A16AFF30814202D033
:1003E000E06A01430A438020D96840051143D9607F
:1003F000A16B814202D0481E062807D807255869FC
:100400002940A8435861586901435961DB681C4978
:100410000B409A4211D100200322A064636C9343E5
:100420001A00012313436364F8BD2020656C284340
:100430006064A06C0143A164CDE71222636C0120CB
:1004400093431A00102313436364A36C0343A36410
:10045000EAE71023626C012013436364E4E7182188
:10046000DA688A43A1680A43DA6019696268890018
:100470008908114319618AE7FDFEFFFF1902FEFF9B
:10048000E7FF3F83036870B59B68040002205B07A9
:100490001AD4250040352B78012B15D001232B7061
:1004A000E369012B11D1636C0B4A00201A408023B1
:1004B0005B0013431C2263642368A06428701A60E5
:1004C0009968183A0A439A6070BD2000FFF7E8FE69
:1004D0000028F9D1E7E7C046FEF0FFFF0368186C7B
:1004E00070470000F7B500230400019340342378DF
:1004F00005000220012B2BD001232A68AE6B9068E7
:100500002370400752D42C484F680D6887423BD077
:10051000AB4018008023976A5B05384390629E4287
:100520000FD0013E062E0CD98B6807215069084078
:10053000834206D050690B408843506150690343A1
:1005400053612B00103B012B03D9002000232370A3
:10055000FEBD1A4B80221968102D13D0D2030A4316
:100560001A60102DF1D1164B16491868FFF7CCFD13
:100570000A2358430190019B002BE6D0019B013BCD
:100580000193F8E71204EAE7AB40916A99432B0024
:10059000103B9162012BD8D8084B1A68102D03D05C
:1005A00009490A401A60D0E70849FAE72022696C35
:1005B00018000A436A64C9E70110000008270140D7
:1005C0000800002040420F00FFFFBFFFFFFF7FFF3A
:1005D00070B58901002814DA0F23C0B20340083B2C
:1005E000114A9B089B009B18032210409040FC324C
:1005F0001500114085408140DC69AC432143D9613D
:1006000070BD032583082840A840FC352E00074A0A
:100610009B009B18C02286402940814092009C5834
:10062000B44321439950EBE700ED00E000E100E026
:100630001F2318401E3B8340014A13607047C04689
:1006400000E100E0094A431E012093420DD8C02179
:10065000074A08485360036A09061B021B0A0B433A
:10066000036200200723906013607047FFFFFF00C4
:1006700010E000E000ED00E0054B1A68042802D10C
:1006800010431860704704218A431A60FAE7C04695
:1006900010E000E0704710B5FFF7FCFF10BD000050
:1006A000F0B50B6887B0029300230191029ADA40FB
:1006B00001D107B0F0BD01229A4003920399029A3A
:1006C0000A40009200D18CE0019A10215268160075
:1006D0008E43022E0ED107251D40AD000139A940E1
:1006E000DC08A4000419276A8F4301990969A9400D
:1006F0000F43276203245F00BC40E4430568013ECA
:100700002540AC4603251540BD4061460D430560BC
:10071000012E0FD801998668CD682640BD4035432B
:1007200085604668039915098E4301210D409D405F
:1007300035434560C56801992C408D688021BD40D6
:1007400049052C43C4600A424BD00121264C0326A4
:10075000A5691E400D43A561A4699D080C40059440
:10076000059C0F242149AD00B6006D18B4409021BE
:10077000AF68C905A743002488420CD01C49013446
:10078000884208D01B490134884204D01A490334F6
:10079000884200D1023CB44000993C430E00AC605A
:1007A000164CCD4327683E43D10301D43E002E4072
:1007B00026606768009E3E43910301D43E002E40B0
:1007C0006660A768009E3E43D10201D43E002E40E1
:1007D000A660E668009F3743920201D42E4037009E
:1007E000E760013362E7C0460010024000000140AC
:1007F0000004004800080048000C004800040140C4
:1008000000690840411E8841C0B27047002A01D0EB
:10081000816170478162FCE703689A69920701D59C
:1008200000229A6201229969114202D199690A4310
:100830009A61704730B504680648656889052840A4
:10084000039D890D2B43194312040A43024362603E
:1008500030BDC046009800FCF8B504000E0017003B
:100860001D002268936933409B1B59424B41BB4298
:1008700001D000200EE06B1CF4D0002D0BD1230022
:10088000202241331A7022000023032042324034D8
:1008900013702370F8BDFFF7EDFC069BC01A85426C
:1008A000DFD2ECE7F8B503680400986910230E0066
:1008B000170018402025002815D1F8BD721C13D050
:1008C000002E0BD12300202241331A702200002376
:1008D00042324034137003202370EEE7FFF7CAFC66
:1008E000C01B8642EED323689A692A42E6D01022C2
:1008F0002000DA61DD61FFF78FFF22680849536845
:1009000001200B4053600423636423002200413321
:100910001D7000234232403413702370CDE7C0466F
:1009200000E800FEF8B504000D0016000227236859
:100930009B693B4201D0002018E0320029002000D2
:10094000FFF7B0FF002818D16B1CF0D0002D0ED19E
:100950002022636C032013436364230041331A7025
:10096000220000234232403413702370F8BDFFF799
:1009700081FC801B8542DAD2EAE70120F6E7F8B570
:1009800004000D001600202723689B693B4201D01C
:10099000002016E0320029002000FFF783FF002826
:1009A00016D1002D0ED12022636C03201343636403
:1009B000230041331A702200002342324034137066
:1009C0002370F8BDFFF756FC801B8542DCD2EAE7B6
:1009D0000120F6E770B504000120002C3FD025006F
:1009E00041352B78DBB2002B05D122004032137049
:1009F000200001F0E7FF242301212B702368E06829
:100A00001A68A6688A431A6061681A4A0A401A611D
:100A10009968194A11409960012821D18021090261
:100A2000314399605868154901435960D9680020DD
:100A30000A40DA60616922690A43A16909020A432E
:100A4000DA60216AE2690A431A60012219680A43DE
:100A50001A60202360642B7020634234207070BDC4
:100A600084210902314399600228DBD180210901E8
:100A70005960D7E7FFFFFFF0FF7FFFFF0080000214
:100A8000F0B5050087B003910492059341352B78AA
:100A900004000220202B57D1230040331A78012A6A
:100AA00052D001261E70FFF7E5FB80210700009061
:100AB0001923320009022000FFF7CEFE002842D1A0
:100AC00021232B70113BAD192B70049B6064636272
:100AD0006B469B8A606363858023628D9B01FF2A3E
:100AE00021D9FF222285009380235B0403992000F3
:100AF000FFF7A0FEFF26638D3A000C992000002B23
:100B000019D1FFF73CFF002819D120212368274E77
:100B1000D9615A6832405A60230040344133197019
:100B20002870207010E0628D92B22285009380239D
:100B3000D2B29B04DAE7FFF7F5FE002806D0636C1B
:100B40000120042B00D0032007B0F0BD636A2268A7
:100B5000591C61621B789362638D228D013B013ABF
:100B60009BB292B263852285002AC4D1638D002B8B
:100B7000C1D000970C9B80212000FFF76DFE00285C
:100B8000E1D1638DFF2B09D98023FF2226855B04E9
:100B9000009003992000FFF74DFEACE78023628DA3
:100BA0009B0492B22285D2B20090F2E700E800FEE8
:100BB000F0B589B005911D00010000230492079350
:100BC00041310B780400DBB20220202B55D1226882
:100BD00096698022120232404FD126004036377883
:100BE000012F4AD0013830701E0023300870626433
:100BF000059BE1689B0522689B0D01291AD13649A6
:100C00000B435360FFF736FB0390270023684137FF
:100C10009A69324218D010279A693A402FD1039B23
:100C20002021009320002B00FFF716FE00281CD087
:100C3000032022E0A0218901E2E7FFF71BFB039BD1
:100C4000C01A8542E1D20AE010219A690A42E2D133
:100C50003A78A02ADFD06A1CDAD0002DEDD120230B
:100C60003B70002340342370E2E720232268D361E5
:100C70002200403441321370207009B0F0BD039B54
:100C80000022009331002B002000FFF7E5FD021E3B
:100C9000CED12368DF61DE610799481C0790049874
:100CA00081420FD180215868C90101435960039BDB
:100CB0003100009320002B00FFF7CEFD0028B7D1B4
:100CC0002368DE61079B049A9A4200D990E72300CB
:100CD000202241331A70C4E700200002F0B504005E
:100CE000413422780300D2B20220202A18D11D00FC
:100CF00040352E78012E13D01B68223020701E68DC
:100D0000233886431E601E68064F3E401E601E68E4
:100D10003143196019680843186000202270287058
:100D2000F0BDC046FFEFFFFFF0B5050041352A7862
:100D30000300D2B20220202A17D11C0040342678AA
:100D4000012E12D01B68223028701E68233886437B
:100D50001E601E68054F09023E4031431960196844
:100D60000843186000202A702070F0BDFFF0FFFFDC
:100D7000F0B5036885B00500DB072FD42B689B070F
:100D800000D581E02B681B0700D5BCE02B685B0712
:100D900000D5DFE02B68DB061AD56A69B54C042361
:100DA000012A00D04BE1616B02260B436363636B46
:100DB0001A436263FFF75EFA0700636B334200D1A8
:100DC00036E1F821626BAB698A43DB00134363634E
:100DD000296A002900D059E1002013E00C21A54C1C
:100DE00062680A40042A06D063680B40082B0BD1C6
:100DF0006368DB0308D523689B03BFD56B68002BB2
:100E0000BCD1012005B0F0BD6B68012B13D180234C
:100E100022685B0213432360FFF72CFA8026070049
:100E2000B60223683342A9D1FFF724FAC01B642815
:100E3000F7D90320E6E7002B16D123688E4A8026D7
:100E40001340236023688D4AB60213402360FFF7E6
:100E500011FA07002368334200D18FE7FFF70AFA3F
:100E6000C01B6428F6D9E4E7052B05D1802322684E
:100E7000DB0213432360CAE723687F4A13402360E1
:100E800023687E4A1340C6E70C227A4C63681342FB
:100E900006D063681340082B10D16368DB030DD4C0
:100EA00023689B0702D5EB68012BAAD1F8212268A1
:100EB0002B698A43DB001343236063E7EA6801235D
:100EC000002A0FD02268022613432360FFF7D2F9CD
:100ED000070023683342E9D1FFF7CCF9C01B022891
:100EE000F7D9A6E7226802269A432260FFF7C2F9E3
:100EF00007002368334200D144E7FFF7BBF9C01B6A
:100F00000228F6D995E7EA6901235A4C002A10D045
:100F1000626A022613436362FFF7ACF90700636A53
:100F2000334200D032E7FFF7A5F9C01B0228F6D9FB
:100F30007FE7626A02269A436262FFF79BF9070025
:100F4000636A334200D121E7FFF794F9C01B0228FE
:100F5000F6D96EE780220021464C5205E3690091E4
:100F6000134208D1E3691343E361E3691340039338
:100F7000039B012300938027414E7F0033683B424F
:100F800006D0AB68012B13D1226A1343236230E0F1
:100F900033683B433360FFF76DF9019033683B42A0
:100FA000EFD1FFF767F9019BC01A6428F6D940E733
:100FB0000122002B14D1236A022793432362236A60
:100FC000033293432362FFF755F90600236A3B423D
:100FD00025D0FFF74FF92B4B801B9842F6D928E715
:100FE000052B0BD1216A013B0B432362236A1A4371
:100FF0002262FFF73FF9022706000DE0236A9343C0
:1010000004222362236A9343C0E7FFF733F91D4BA1
:10101000801B984200D90CE7236A3B42F5D0009B25
:10102000012B00D0B6E6E369174A1340E361B1E64D
:10103000FFF720F9C01B022800D8BEE6F9E605320A
:1010400003D1626B9A436263BBE6626B0226134371
:1010500001226363636B93436363FFF70BF907003C
:10106000636B334200D1B3E6FFF704F9C01B0228DB
:10107000F6D9DEE600100240FFFFFEFFFFFFFBFF98
:101080000070004088130000FFFFFFEF0C22264C89
:10109000012063681340082B00D1B3E62368234A7C
:1010A0001340236002292FD1FFF7E4F880260700C0
:1010B000B6042368334221D10F22E36A9343EA6ADC
:1010C0001343E362696AAB6A62680B43184980257F
:1010D0000A4013436360802322685B041343236048
:1010E000FFF7C8F80600AD0423682B4200D073E672
:1010F000FFF7C0F8801B0228F6D99AE6FFF7BAF886
:10110000C01B0228D5D994E6FFF7B4F88025060065
:10111000AD0423682B4200D15EE6FFF7ABF8801BDD
:101120000228F6D985E6C04600100240FFFFFFFE08
:10113000FFFFC2FF70B5144C88B010222100684632
:1011400001F00EFD210004AD10221031280001F045
:1011500007FD0C220D4E73681A40082A11D10F208A
:101160006A46990C0140545CF26A0240A95CDB03B8
:1011700005D50748FEF7C8FF604308B070BD0548B5
:10118000FAE70348F9E7C046EC33000800100240D4
:1011900000127A0000093D00F7B50122434C060019
:1011A00023680F0013408B421CD33268930723D46B
:1011B000D30729D4012322681A40974267D33368A2
:1011C0003B4C5B076AD4FFF7B5FF6368394A1B06DF
:1011D0001B0FD35CD840384B18600020FFF720F875
:1011E000002008E0236893430B43236023681340E7
:1011F0009942DAD00120FEBDF0202D494B6883438F
:10120000B06803434B60D3E7294D72682B68012A0D
:101210001AD19B03EED503216B688B4313436B609C
:10122000FFF728F873680190012B15D10C226B6829
:101230001340042BBED0FFF71DF8019BC01A1F4BB3
:101240009842F3D90320D6E7022A02D19B01E2D4C7
:10125000D0E79B07DFD4CDE7022B12D00C226B68BE
:101260001342A7D0FFF706F8019BC01A134B984210
:10127000F4D9E7E7FEF7FEFF019BC01A0F4B984237
:10128000E0D80C226B681340082BF3D192E7226858
:101290009A43226022681A42ACD190E76368084AF8
:1012A0001340F268134363608DE7C046002002409C
:1012B000001002400F3C00080800002088130000C6
:1012C000FFF8FFFF014B18687047C0460800002078
:1012D000F0B5036885B00500DB0328D58022002126
:1012E000374C5205E3690091134208D1E369134377
:1012F000E361E36913400393039B01230093802779
:10130000304E7F0033683B4226D0C022236A9200D1
:1013100013402D4E32D1236A1E406B681E43009B42
:101320002662012B03D1E369284A1340E3612A684E
:10133000D30706D5032022490B6B8343A8680343D8
:101340000B630020930617D510211D4A136B8B43A6
:10135000E9680B4313630FE033683B433360FEF7E8
:1013600089FF019033683B42CFD1FEF783FF019B99
:10137000C01A6428F6D9032005B0F0BD69680A4098
:101380009342C8D08023226A206A11005B02034383
:101390002362236A0E483140034023622162D3074F
:1013A000B9D5FEF767FF07000222236A1342B2D1C4
:1013B000FEF760FF074BC01B9842F5D9DBE7C0463C
:1013C0000010024000700040FFFCFFFFFFFFFFEF36
:1013D000FFFFFEFF8813000070470000036810B590
:1013E0009A680400D2040AD5DB68DB0507D5FFF74D
:1013F000F3FF2168054BCA68D2B21343CB60802249
:10140000034B92025A610123637710BD7FFEFFFFF9
:1014100000040140A0210268F8B5D36804008B43A2
:10142000D360FEF727FFFA2706002025BF002368B8
:10143000DB682B4201D00020F8BDFEF71BFF801BAC
:10144000B842F4D90320F7E7F8B540240368050053
:10145000DA68224201D00020F8BD01225242DA604F
:10146000FEF708FFFA270600BF002B68DB6823425F
:10147000F1D1FEF7FFFE801BB842F6D90320EBE75F
:1014800070B504000125002818D0437FDBB2002B83
:1014900002D1037701F0BCFA0223CA2263772368E2
:1014A00020005A62773A5A62FFF7CEFF2368051E82
:1014B00006D0FF225A62042301256377280070BDFD
:1014C0009A68174920690A409A60626899680243DD
:1014D000606902430A439A60E2681A61A268196966
:1014E00012040A4380211A61DA688A43DA609B6831
:1014F0009B0606D42000FFF78DFF002801D023684B
:10150000D7E7236807491A6C0A401A641A6CA16964
:101510000A431A64FF225A6201236377CEE7C0466A
:10152000BFFF8FFFFFFFFBFF0023092803D81B012C
:101530001843C0B270470A380133C0B2F5E7000063
:101540000223F7B50D00017F04001F00012932D0EE
:1015500001214377036801779B683F3128786E78D3
:10156000AF780B40002A28D1002B00D1EB70FFF799
:10157000DBFF01903000FFF7D7FF06003800FFF7D0
:10158000D3FFEF78019B3F0407431804074336025B
:10159000CA22236820005A62773A5A62FFF754FF42
:1015A0003E432368071E12D0FF225A62042363774A
:1015B0000023237701273800FEBD002B00D1EB70FC
:1015C0000004360206433743EE783604E0E7144859
:1015D000144906401E609A6828690A409A60EA68C1
:1015E000996802430A4380219A60DA688A43DA6084
:1015F0009B689B060BD42000FFF70CFF002806D049
:10160000FF2223685A62042327776377D2E7FF22F9
:1016100023685A620123637700232377CBE7C04610
:101620007F7F7F00FFFFFBFF0223F7B50D00017FE7
:1016300004001E00012931D00121437701776B7826
:10164000E878AF782E78002A48D11032134202D0C1
:1016500093430A336B70FFF767FF01906878FFF7D9
:1016600063FF05003800FFF75FFF019B76033043FF
:101670001E0406432D023543CA22236820005A6205
:10168000773A5A62FFF7E0FE2368061E08D0FF2271
:101690005A62042363770023237701263000FEBDBE
:1016A0008021124F3D405D60DA688A43DA609B68B2
:1016B0009B060BD42000FFF7ADFE002806D0FF22CA
:1016C00023685A62042326776377E6E7FF222368BC
:1016D0005A620123637700232377DFE700041B02AC
:1016E00003431F4375033D43C6E7C0463FFFFF006A
:1016F0000223F0B50C00017F050085B01800012918
:1017000073D001216B772B6829779B683F31207854
:101710006678A7780B40002A48D1002B00D1E370EF
:10172000FFF702FF01903000FFF7FEFE06003800D1
:10173000FFF7FAFE0700631CD87FFFF7F5FE62692A
:10174000E36936021343E278120413431F43019BFB
:101750001B041F433E43CA22636825490193A369C2
:10176000000602932B6806435A62773A5A629A68D7
:1017700001270A409A609A681E490A409A60FEF75B
:1017800079FD03902B68DC683C4020D00299019AD7
:10179000DE610A435A648022996852000A439A60C3
:1017A0000020FF225A626F7728771EE0002B00D1BD
:1017B000E370E3696269000413431F430743E07861
:1017C000360200043E43631C0643D87FC3E7FEF79E
:1017D00051FD039BC01AFA239B009842D2D9FF22E5
:1017E00003202B685A6268772C7705B0F0BDC0469D
:1017F000FFFEFFFFFFEFFFFF0223F0B50C00017FAC
:10180000050085B01800012900D182E001216B7725
:101810002B6829779B683F3120786678A7780B4042
:10182000002A57D1002B00D1E370FFF77DFE019015
:101830003000FFF779FE06003800FFF775FE07005D
:10184000631CD87FFFF770FE6269E36936021343B9
:10185000E278120413431F43019B1B041F433E43C2
:10186000CA2263682C490193A369000602932B687E
:1018700006435A62773A5A629A6801270A409A6088
:10188000D968264AC9B20A43DA60FEF7F3FC03902E
:101890002B68DC683C402ED00299019ADE610A4335
:1018A0005A648022996852000A439A60802299689B
:1018B00052010A4380219A60194A8902106808433C
:1018C00010609068014391600020FF225A626F7798
:1018D00028771EE0002B00D1E370E3696269000401
:1018E00013431F430743E078360200043E43631C62
:1018F0000643D87FB4E7FEF7BDFC039BC01AFA236A
:101900009B009842C4D9FF2203202B685A62687753
:101910002C7705B0F0BDC046FFFEFFFF7FFEFFFF46
:10192000000401400A23020953430F2210401818F3
:10193000C0B2704770B50C007F2501683F208B6AEC
:1019400063600B695B045B0CA3600B680D490B4083
:101950001E0A190C2E401D404023084019402070DB
:101960006670A570E170002A0AD1FFF7DBFF2070D6
:101970003000FFF7D7FF60702800FFF7D3FFA0709B
:10198000002070BD7F7F7F0070B53F250C0003688D
:101990000D495B680B40180CDE041D401B04F60E5D
:1019A0005B0FE0706670A5702370002A0AD1FFF704
:1019B000B9FFE0703000FFF7B5FF60702800FFF757
:1019C000B1FFA070002070BD3FFFFF00F7B580227F
:1019D0007F2752004A620C0001683F25CA69496CA2
:1019E000160A3E40174001976F463F798C46A77014
:1019F0004027110CC9B208003940E1706146490422
:101A0000490C6160110E28400D408021C90511402C
:101A1000671C20706670FD77E1610B490A406261C6
:101A2000002B0ED1FFF77EFF20703000FFF77AFF0A
:101A300060700198FFF776FFA0702800FFF772FF33
:101A4000F8770020FEBDC0468080808030B500223F
:101A5000172306250E4C87B001A920008A70CA60A2
:101A60000A610B704D70FFF76BFD021E00D0FEE7A0
:101A70006946042320000B700E334B708D70CB70C1
:101A8000FFF7D2FD002800D0FEE707B030BDC0460A
:101A90003C05002000B58BB06A460C231370063B52
:101AA0005370694600228A708021C90507916946F2
:101AB0000131CB770748FA336946019203920492C9
:101AC000059206920993FFF797FE002800D0FEE7E3
:101AD0000BB000BD3C05002070B5134E88B003ADBF
:101AE00002AC290000223000FFF724FF2100002271
:101AF0003000FFF749FFA9786B782A780B480091EE
:101B00000B4901F03FF8FA20E178C000091863782A
:101B1000A27808480091084901F034F82278074B70
:101B20001A7008B070BDC0463C0500206605002054
:101B3000B13B000870050020C03B00088C0000206D
:101B4000802210B58CB002AC210000235200064860
:101B5000FFF73CFFA178637822780448009104499C
:101B600001F010F80CB010BD3C0500205C05002011
:101B7000B13B000810B51921002000F07BFD0122C7
:101B80000349044800F0C8FD00F008FE10BDC0463F
:101B9000000000205C05002010B50A21002000F0A4
:101BA00069FD224C01222100214800F0B5FD1421DD
:101BB000002000F05FFD012221001E4800F0ACFD76
:101BC00000F0ECFD1E21002000F054FD1A4B1A78A5
:101BD000012A06D12100194800F09EFD00F0DEFD2B
:101BE00010BD022A03D1013A21001548F4E7032A67
:101BF00003D1023A21001348EEE7042A03D1033A45
:101C000021001148E8E7052A03D1043A21000F48D2
:101C1000E2E7062A03D1053A21000D48DCE7072A4E
:101C2000DCD1063A21000B48D6E7C0460000002070
:101C300066050020700500208C000020783B00081D
:101C40007F3B0008873B0008913B00089A3B000857
:101C5000A13B0008AA3B000810B51921002000F0A4
:101C600009FD01220349044800F056FD00F096FDED
:101C700010BDC046000000206605002010B51921E7
:101C8000002000F0F7FC01220349044800F044FD65
:101C900000F084FD10BDC04600000020700500204B
:101CA00010B51921002000F0E5FC174B1A78012A25
:101CB00006D11649164800F02FFD00F06FFD10BD4B
:101CC000022A03D1013A11491248F4E7032A03D149
:101CD000023A0E491048EEE7042A03D1033A0B49B1
:101CE0000E48E8E7052A03D1043A08490C48E2E720
:101CF000062A03D1053A05490A48DCE7072ADCD160
:101D0000063A02490848D6E78C000020000000206F
:101D1000783B00087F3B0008873B0008913B0008A8
:101D20009A3B0008A13B0008AA3B0008002110B51F
:101D30009024080000F09EFCE40501220C490D48A7
:101D400000F0EAFC00F02AFD012210212000FEF73D
:101D50005DFDC820FEF794FA002000F059FC00F069
:101D60001DFD002210212000FEF750FD10BDC046D1
:101D700000000020093C00081A2310B594B0089315
:101D8000193B10220B930D930F93002308A80C927C
:101D90000E921093FEF7ECFF011E00D0FEE7072322
:101DA00001900290039068460093FFF7F5F9002830
:101DB00000D0FEE70F4B07900493802304A89B00FC
:101DC0000593FFF785FA041E00D0FEE7FFF77AFAC5
:101DD000FA218900FEF798F9FEF734FC0420FEF79B
:101DE0004BFC0120220021004042FEF7F1FB14B021
:101DF00010BDC04620000100F0B595B0FEF722FAF4
:101E0000FFF7BAFF8020984A8002516900270143FA
:101E10005161536910210340902000220493C005B2
:101E2000049BFEF7F3FC032390200AAE0A933100D3
:101E3000013BC005B3607760FEF732FC90201023B1
:101E400001243100C0050A937460B760F760FEF7A3
:101E500027FC864D864B28002B60864BAF606B605D
:101E6000EC602F616F61AF61EF612F62FEF7B2FD31
:101E70000100B84200D0FEE72800FEF72FFF011E48
:101E800000D0FEE72800FEF74FFF002800D0FEE755
:101E9000794A7A4B506013607F23106193605061E0
:101EA000906180331000D360FFF7EAFA021E00D081
:101EB000FEE705A9087048708870C86008616E4820
:101EC000FFF73EFB021E00D0FEE703A9C8706A4878
:101ED0000C704C708C70FFF7A7FB021E00D0FEE761
:101EE0002123802702A95B1830707070B070706079
:101EF000F06030617061B061F0617F0031005E4878
:101F0000DC777762FFF778FC002800D0FEE75C4DB5
:101F10005C4B68602B6004236B61C223A860E8609F
:101F2000A861E8616862FF33E862286328002C61D9
:101F30002C62AB626C63FEF7FFF9002800D0FEE76D
:101F40000623336080235B017360802331005B05CF
:101F50002800B360FEF7C6FA002800D0FEE700F0C4
:101F60003FFC494B1870FFF771FDFFF793FD019798
:101F70000023019A45494048FFF728FD444F0022BD
:101F800039003D48FFF7D6FC424E002231003A4866
:101F9000FFF7FAFC3D4B32780133DA773B4B1A8876
:101FA0003B889A4240D0FFF797FDFFF7F5FD902060
:101FB0002100C005FEF724FC002800D0A4E19020F9
:101FC0000221C005FEF71CFC002800D0DEE228003C
:101FD000FEF758FA2800FEF781FA06001420FEF7F3
:101FE0004FF92800FEF74EFA2800FEF777FAF4239F
:101FF000FF33361A9E42BBDD14215D2000F03AFB10
:10200000254E22003100254800F086FB00F0C6FB7B
:1020100014215D2000F02EFB22003100204800F04A
:102020007BFB00F0BBFBA3E7BB780094002BBAD18D
:102030009026F605009B002BB5D0002000F0E8FAB2
:1020400000F0ACFBFFF772FE21003000FEF7D8FB7A
:102050000028EFD021003000FEF7D2FB0028A2D0EC
:102060001420FEF70DF9F5E700100240A804002047
:10207000005400400B0200003C05002000280040F6
:102080007C0500200024014038050020F4040020D5
:102090001C0500203005002000000020033C000843
:1020A000063C00081420FEF7EBF821003000FEF794
:1020B000A7FB0028F6D100F0ABFA00F06FFB00940C
:1020C000009B002B00D17AE7FFF706FDFFF7C4FD68
:1020D0000F21002000F0CEFAD04E22003100D0486F
:1020E00000F01AFB0821002000F0C4FA22003100A1
:1020F000CC4800F011FB00F051FB39000022CA4827
:10210000FFF718FC90200221C005FEF779FB00289C
:1021100000D0FFE090202100C005FEF771FB0028F1
:10212000CED090202100C005FEF76AFB002800D029
:1021300005E100F06DFA00F031FB009B002B00D1AF
:102140003DE7FFF7C9FCFFF787FD0F21152000F0E1
:1021500091FAB24E22003100B14800F0DDFA0821B8
:10216000002000F087FA22003100B04800F0D4FAD5
:1021700000F014FB39000022AB48FFF7DBFB902096
:102180000221C005FEF73CFB002800D0DEE09020D5
:102190002100C005FEF734FB0028CED0902021009E
:1021A000C005FEF72DFB002800D0E4E000F030FA77
:1021B00000F0F4FA009B002B00D100E7FFF78CFC45
:1021C000FFF75CFD0F21002000F054FA934E22002F
:1021D0003100934800F0A0FA0821002000F04AFAEC
:1021E00031002200924800F097FA00F0D7FA914EA1
:1021F000002231008C48FFF7C7FB90200221C00568
:10220000FEF7FEFA002800D0BCE090202100C005B7
:10221000FEF7F6FA0028CDD090202100C005FEF789
:10222000EFFA002800D0DBE000F0F2F900F0B6FA97
:10223000009B002B00D1C2E6FFF74EFCFFF71EFD0E
:102240000F21152000F016FA744E22003100744858
:1022500000F062FA0821002000F00CFA31002200A0
:10226000754800F059FA00F099FA724F6E4E390035
:1022700000223000FFF788FB90200221C0057F7804
:10228000FEF7BEFA002800D0B1E090202100C00582
:10229000FEF7B6FA0028CBD090202100C005FEF74B
:1022A000AFFA002800D0B5E000F0B2F900F076FAFD
:1022B000009B002B00D182E6FFF70EFCFFF7F0FC3D
:1022C0005C4F594E390000223000FFF75DFB902033
:1022D0000221C0053F78FEF793FA002800D0B2E053
:1022E00090202100C005FEF78BFA0028E0D0902056
:1022F0002100C005FEF784FA002800D0BBE000F002
:1023000087F900F04BFA5AE69026F605CDE6142040
:10231000FDF7B6FF90200221C005FEF771FA0028F4
:10232000F5D13B780133DBB2182B06D03B7000228D
:1023300039003D48FFF704F9ECE63870F7E7142060
:10234000FDF79EFFEDE61420FDF79AFF9020022195
:10235000C005FEF755FA0028F5D17B780133DBB2D2
:102360003C2B06D07B70002239002F48FFF7E8F89D
:102370000DE77870F7E71420FDF782FF0EE71420D1
:10238000FDF77EFF90200221C005FEF739FA0028F4
:10239000F5D1B3780133DBB2B370202B08D172785A
:1023A0000C2A05D8254BD34022009A4300D1B470A3
:1023B000B3781E2B03D17378022B00D1B470B3789D
:1023C0001F2B07D1022273789343042B01D0092BD2
:1023D00000D1B470002231001348FFF725F914E74B
:1023E0001420FDF74DFF17E71420FDF749FF90205B
:1023F0000221C005FEF704FA0028F5D10137FFB22B
:102400000D2F00D127000B49002230004F70FFF73D
:102410000BF93AE71420FDF733FF3DE700000020F9
:10242000CE3B0008D13B00083C050020DB3B000808
:10243000E73B000830050020EF3B0008AA1500002C
:102440001420FDF71DFF90200221C005FEF7D8F9EA
:102450000028F5D10137FFB2082F00D127006649C7
:10246000002230000F70FFF7DFF8002000F0D0F8F6
:1024700000F094F934E71420FDF702FF37E7142049
:10248000FDF7FEFE02213000FEF7BAF90028F6D172
:10249000902600F0BDF8F60500F080F90094009B4E
:1024A000002B00D193E5FFF74BFBFFF763FB0F21F8
:1024B000002000F0DFF8514F22003900504800F0B2
:1024C0002BF90821002000F0D5F8390022004D48F2
:1024D00000F022F900F062F900234B49019A4B48C1
:1024E000FFF774FA484B022130001F78FEF788F995
:1024F000002851D121003000FEF782F90028CED00B
:1025000021003000FEF77CF9002857D100F080F858
:1025100000F044F9009B002B00D158E5FFF710FBB9
:10252000FFF728FB0F21152000F0A4F8334F2200FD
:102530003900334800F0F0F80821002000F09AF844
:10254000390022002F4800F0E7F800F027F90023B7
:102550002D49019A2D48FFF739FA2B4B0221300003
:102560005F78FEF74DF900282FD121003000FEF7EB
:1025700047F90028CED021003000FEF741F90028AD
:1025800035D100F045F800F009F920E59026F60570
:1025900078E71420FDF774FE02213000FEF730F9D1
:1025A0000028F6D10137182F00D10700164B002262
:1025B000190016481F70FFF79BF89BE71420FDF7E2
:1025C0005FFE9DE71420FDF75BFE02213000FEF761
:1025D00017F90028F6D101373C2F00D127000A4B0C
:1025E0000022190009485F70FFF782F8BDE7142048
:1025F000FDF746FEBFE7C046300500200000002082
:10260000CE3B0008F93B0008F40400203C05002004
:10261000002110B5884200D0FF3180220248D2004C
:1026200000F0A7FA10BDC0469400002010B57F2826
:1026300014D83F2912D80D4B1B79002B02D05342DE
:102640005A41D2B2CB08DB0118180723084C1940B5
:10265000012A04D18A40235C1A43225410BD01226E
:102660008A40235C93432354F8E7C0468E00002041
:1026700094000020014B1880598070478E00002084
:10268000F0B585B00292234A0C001388070000932E
:102690000B7800995B187F2B07DC53880026019389
:1026A000019A63789B183F2B0EDD002714E03A0057
:1026B0000025203A534362689B195B009B5A0393A1
:1026C00023789D420BD3013663789E42EFD3009A64
:1026D0002378D3180F4A1380380005B0F0BD019B52
:1026E00080229919039B1202AB40134208D0009B31
:1026F000029A581989B280B2FFF798FF0135DFE7D7
:10270000029A89B253425A41009BD2B2581980B200
:10271000F2E7C0468E00002070B504000D001600E0
:102720002078002800D170BD32002900FFF7A8FFF3
:10273000030020788342F6D10134F1E7B3B51C00E1
:102740006D460834E408E4002C1B02AFA5460124C2
:1027500002AD2970A34208D20A2281B20092064833
:102760002A00FEF78DF9BD46B0BD1119013909786F
:1027700029550134E4B2EDE7A80400201FB50A236F
:1027800003AC2170627081B200932200083B0248C2
:10279000FEF776F91FBDC046A804002070B50024DE
:1027A00078252200503AD2B200212800FFF7E6FF38
:1027B000002228001100FFF7E1FF1022002128006D
:1027C000FFF7DCFF054AE301D218402180232800EF
:1027D0000134FFF7B3FF082CE3D170BD9400002053
:1027E00010B5514B012278215048FEF7E1F9002441
:1027F000A04200D095E02100AE227820FFF7BEFF76
:10280000210020227820FFF7B9FF21001022782034
:10281000FFF7B4FF2100B0227820FFF7AFFF2100BF
:10282000C8227820FFF7AAFF220021007820FFF7B6
:10283000A5FF210010227820FFF7A0FF21004022F1
:102840007820FFF79BFF210081227820FFF796FF79
:102850002100FF227820FFF791FF2100A12278209C
:10286000FFF78CFF2100A6227820FFF787FF2100C9
:10287000A8227820FFF782FF21003F227820FFF76F
:102880007DFF2100A4227820FFF778FF2100D322CA
:102890007820FFF773FF220021007820FFF76EFFFA
:1028A0002100D5227820FFF769FF2100F02278204F
:1028B000FFF764FF2100D9227820FFF75FFF210096
:1028C00022227820FFF75AFF2100DA227820FFF732
:1028D00055FF210012227820FFF750FF2100DB2254
:1028E0007820FFF74BFF210020227820FFF746FFDA
:1028F00021008D227820FFF741FF2100142278204B
:10290000FFF73CFF2100AF227820FFF737FF2000C0
:10291000FFF77EFEFFF742FF054B1C805C80013411
:102920005C71200010BDC046204E0000A8040020AD
:102930008E00002007B50120114B99690143996170
:1029400080219A69490502400092009ADA690638A6
:102950000A43DA610022DB690B4001931100019BFD
:10296000FDF736FE0022022011004042FDF730FE46
:102970000022012011004042FDF72AFE07BDC0469B
:10298000001002407FB50D4B02689A4214D180209E
:102990000B4A8000916901439161936901A9034049
:1029A0000093009B4023902001933D3B0293002322
:1029B000C0050393FDF774FE07B000BD002401407D
:1029C000001002407FB5104B02689A4219D1C02313
:1029D000DB000193122390200293113B03930233F7
:1029E000049301A90133C0050593FDF759FE80202A
:1029F000064A8003D1690143D161D3690340009342
:102A0000009B07B000BDC0460054004000100240CB
:102A1000094B026810B59A420DD18023074A1B0268
:102A2000116A02200B43136200221100FDF7D0FD52
:102A30000220FDF7FDFD10BD0028004000100240FF
:102A40007047FEE77047704710B5FDF70BFCFDF7C8
:102A500022FE10BD10B50248FEF7C0FC10BDC046F6
:102A60003C0500200121114B11481A680A431A60E5
:102A70005A6802405A601A680E4802401A601A6882
:102A80000D4802401A605A680C4802400F205A60F4
:102A9000DA6A8243DA621A6B094802401A635A6B97
:102AA0008A435A6300229A607047C0460010024071
:102AB0000CB8FF08FFFFF6FEFFFFFBFFFFFFC0FFA4
:102AC000ECFEFFFF0D4885460D480E490E4A0023D7
:102AD00002E0D458C4500433C4188C42F9D30B4AD2
:102AE0000B4C002301E013600432A242FBD3FFF73A
:102AF000B9FF00F011F8FFF77FF9FEE700100020A2
:102B000000000020700000205C3C000870000020E5
:102B1000CC050020FEE7000070B500260C4D0D4CE2
:102B2000641BA410A64209D1002600F053FC0A4DF4
:102B30000A4C641BA410A64205D170BDB300EB582B
:102B400098470136EEE7B300EB5898470136F2E7B5
:102B5000543C0008543C0008543C0008583C000811
:102B6000002310B59A4200D110BDCC5CC45401338F
:102B7000F8E703008218934200D1704719700133BF
:102B8000F9E700000EB410B59DB002A902900861EB
:102B90000B48822488604861012040421FABC881F5
:102BA000084804CBA400006801938C8100F06EF803
:102BB0000023029A13701DB010BC08BC03B0184764
:102BC000FFFFFF7F0C000020F0B58E6885B0070086
:102BD0000C00039201939E4239D890238A89DB002E
:102BE0001A4234D00325096923685B1A029363698A
:102BF00002985D43EB0F5D19019B6D1001331B18AB
:102C0000AB4200D91D00530532D52900380000F031
:102C100031FB061E09D10C233B6040230120A28911
:102C200040421343A38105B0F0BD029A2169FFF72A
:102C300097FFA389144A1A4080231343A381029B60
:102C40002661F61826606561019EED1AA560019B5C
:102C5000B34200D21E0032000399206800F0ADFAA2
:102C6000A36800209B1BA36023689E192660DAE7F7
:102C70002A00380000F05CFB061EE0D12169380014
:102C800000F0AEFAC7E7C0467FFBFFFFF0B59FB08C
:102C9000029005938B890F0016001B0611D50B6956
:102CA000002B0ED1402100F0E5FA38603861002891
:102CB00005D10C23029A013813601FB0F0BD4023E8
:102CC0007B61002306AD6B6120336B761033AB76EE
:102CD00034002378002B47D1A31B04930DD0A31BF2
:102CE000320039000298FFF76FFF431C00D1B5E0B6
:102CF0006A69049B944663446B612378002B00D17E
:102D0000ACE00122002352426A6002A954325218F8
:102D100001342B60EB60AB601370AB65584E05223D
:102D20002178300000F03EFA621C002820D129688A
:102D3000CB0604D5532302AE20309B1918700B0725
:102D400004D553232B2002AE9B19187023782A2B0D
:102D500016D000200A21099B2278303A092A55D939
:102D6000002815D0099313E0252BB5D00134B0E726
:102D70000123801B8340296814000B432B60CDE79F
:102D8000059B181D1B680590002B39DB0993140067
:102D900023782E2B0BD16378621C2A2B3ED1059B06
:102DA00002341A1D1B680592002B34DB0793354E45
:102DB00021780322300000F0F5F9002806D04023E6
:102DC000801B83402A68013413432B60217806223C
:102DD0002D48661C297600F0E5F9002846D02B4BDB
:102DE000002B2FD12968059B0722C90528D59B18E0
:102DF0009343083305936B69039A9B186B6167E7EC
:102E00005B42EB6002230B432B60C0E74B43013472
:102E10009B180120A0E701235B42C7E700231400B1
:102E20000A201A006B6021783039092903D9002B58
:102E3000BDD00792BBE74243013452180123F2E7A9
:102E40000733D5E705AB00933A00114B29000298F0
:102E500000E000BF0390039B0133CCD1BB890B98EA
:102E60005B0600D429E70120404226E705AB00932A
:102E70003A00074B2900029800F07AF8EAE7C046CA
:102E80001F3C0008253C0008293C00080000000009
:102E9000C92B0008F7B5150001938A680B690090EB
:102EA0000C00934200DA130022002B6043321278A8
:102EB000002A01D001332B6023689B0602D52B68C2
:102EC00002332B60062723681F4027D0230043339B
:102ED0001B785A1E93412268920630D42200019931
:102EE00043320098089EB047431C25D00623206833
:102EF0002A68E16803400025042B03D18D1AEB43B7
:102F0000DB171D40A3682269934201DD9B1AED186F
:102F10000027BD4220D1002010E00137E3682A6875
:102F20009B1A9F42D2DA220001231932019900989C
:102F3000089EB047431CF0D101204042FEBD302026
:102F4000E1184331087021005A1C45310978A21854
:102F5000433202331170C1E7220001231A32019972
:102F60000098089EB047431CE6D00137D1E7000027
:102F7000F0B58BB006920A00433207930590049295
:102F80000A7E0C00109B6E2A00D18FE017D8632AAE
:102F90002CD008D8002A00D199E0582A54D0260015
:102FA0004236327029E0642A01D0692AF7D12168BB
:102FB0001A68080623D5111D1960156825E0732AC3
:102FC00000D188E008D86F2A29D0702AE7D12022C2
:102FD00009680A43226003E0752A20D0782ADED1EE
:102FE00022007821453211706C4A30E00E001A68D8
:102FF0004236111D196013683370012379E04906C8
:10300000D9D5111D19600023D55E002D03DA2D23BB
:10301000049A6D421370624B0A2703932FE02068D5
:103020001968050603D5081D18600D6805E04006FF
:10303000F9D50D68081D1860ADB2594B08270393E8
:103040006F2A18D00A2716E045310A70544A0392B5
:103050001A682168101D18601568080622D5CB076C
:1030600002D52023194321601027002D03D12023EE
:1030700022689A4322602300002243331A70636857
:10308000A360002B5CDB0422216891432160002DAA
:1030900058D1049E002B64D02600039B42361B7837
:1030A00033705EE04806DAD5ADB2D8E709681A6831
:1030B000080605D5111D1960136862691A6006E0DB
:1030C0004906F7D5111D19601368A28A1A800023DA
:1030D000049E236154E01A68111D196016680021CE
:1030E0006268300000F05EF8002801D0801B60604C
:1030F000636823610023049A137041E0236932005E
:1031000006990598079DA847431C43D023680025CE
:103110009B070FD4099BE06898423DDA18003BE01A
:1031200022000123193206990598079EB047431CD7
:1031300030D00135E368099A9B1A9D42F0DBE9E73C
:10314000002DA9D0049E28003900FDF763F8039BE9
:10315000013E5B5C280033703900FCF7D5FF051E8B
:10316000F1D1082F09D12368DB0706D563682269EE
:10317000934202DC3023013E3370049B9B1B23618E
:10318000079B09AA00932100069B0598FFF782FE82
:10319000431CB3D1012040420BB0F0BD413C0008BC
:1031A000303C0008C9B28218904201D1002070471B
:1031B00003788B42FBD00130F6E710B5884202D984
:1031C0008B18984208D300239A4207D0CC5CC45491
:1031D0000133F9E78B5C8354013AFBD210BD000048
:1031E00070B50500002910D00C1F2368002B00DAF1
:1031F000E418280000F0D4F81D4A1368002B05D10C
:1032000063601460280000F0CCF870BDA34209D9B7
:10321000216860188342F3D118685B684118216007
:10322000EEE713005A68002A01D0A242F9D91968C2
:103230005818A0420BD1206809185818196082420A
:10324000E0D110685268411819605A60DAE7A0426C
:1032500002D90C232B60D5E721686018824203D184
:10326000106852684118216062605C60CAE7C0461D
:1032700094040020032370B5CD1C9D43083506003F
:103280000C2D1ED20C25A9421DD8300000F088F864
:10329000254A14682100002919D1244C2368002BE9
:1032A00003D1300000F06AF820602900300000F0FF
:1032B00065F8431C2CD10C233000336000F071F80A
:1032C00003E0002DDFDA0C233360002070BD0B68B3
:1032D0005B1B1AD40B2B03D90B60CC18256003E0C1
:1032E0008C420ED163681360300000F05AF8200061
:1032F00007220B30231D9043C31AE7D05A42E250F5
:10330000E4E74B6863600C00EEE70C004968C2E735
:103310000323C41C9C43A042E0D0211A300000F0DB
:103320002DF8431CDAD1C6E794040020980400204D
:10333000F8B507000D001600002905D11100FFF7B0
:1033400099FF04002000F8BD002A03D1FFF748FFD1
:103350003400F7E700F026F82C008642F2D931005D
:103360003800FFF787FF041EECD029003200FFF77A
:10337000F7FB29003800FFF733FFE3E7002370B5C0
:10338000064C05000800236000F014F8431C03D12C
:103390002368002B00D02B6070BDC046C8050020FC
:1033A000704770470B1F1B68181F002B01DA0B5862
:1033B000C0187047054B02001968002901D1044963
:1033C0001960186882181A607047C0469C04002073
:1033D000CC050020F8B5C046F8BC08BC9E46704736
:0C33E000F8B5C046F8BC08BC9E4670471B
:1033EC0002030405060708090A0B0C0D0E0F10103A
:1033FC000102030405060708090A0B0C0D0E0F1039
:10340C0000000000000000000000000000000000B0
:10341C000000000000100010001000100010001040
:10342C000000001000000000002800280028000008
:10343C000000000000000000000000000024002438
:10344C00007C00240048007C00480048000000007C
:10345C000038005400500038001400540054003858
:10346C0000100000002000540058003000280054C8
:10347C0000140008000000000010002800280010B4
:10348C000034004800480034000000000010001018
:10349C000010000000000000000000000000000010
:1034AC000008001000200020002000200020002038
:1034BC000010000800200010000800080008000898
:1034CC000008000800100020001000380010002830
:1034DC0000000000000000000000000000000000E0
:1034EC0000100010007C0010001000000000000014
:1034FC0000000000000000000000000000000010B0
:10350C000010001000000000000000000000003857
:10351C00000000000000000000000000000000009F
:10352C00000000000000001000000000000800086F
:10353C0000100010001000100020002000000000FF
:10354C000038004400440054004400440044003857
:10355C00000000000010003000500010001000109F
:10356C00001000100000000000380044004400046B
:10357C00000800100020007C00000000003800440F
:10358C00000400180004000400440038000000008F
:10359C0000080018002800280048007C00080008DB
:1035AC0000000000007C0040004000780004000493
:1035BC00004400380000000000380044004000784F
:1035CC00004400440044003800000000007C00046B
:1035DC000008001000100020002000200000000057
:1035EC0000380044004400380044004400440038D3
:1035FC00000000000038004400440044003C00047B
:10360C000044003800000000000000000010000022
:10361C00000000000000001000000000000000008E
:10362C00000000100000000000000010001000104E
:10363C0000000000000C003000400030000C0000C6
:10364C0000000000000000000000007C0000007C76
:10365C0000000000000000000000000000600018E6
:10366C000004001800600000000000000038004456
:10367C000004000800100010000000100000000002
:10368C0000380044004C0054005C004000400038FE
:10369C000000000000100028002800280028007CF2
:1036AC00004400440000000000780044004400780E
:1036BC00004400440044007800000000003800443E
:1036CC000040004000400040004400380000000072
:1036DC00007000480044004400440044004800705E
:1036EC0000000000007C00400040007C00400040D6
:1036FC000040007C00000000007C0040004000788E
:10370C000040004000400040000000000038004431
:10371C0000400040005C0044004400380000000001
:10372C00004400440044007C004400440044004435
:10373C0000000000003800100010001000100010F5
:10374C000010003800000000000400040004000415
:10375C00000400040044003800000000004400484D
:10376C000050006000500048004800440000000079
:10377C000040004000400040004000400040007C01
:10378C00000000000044006C006C00540044004435
:10379C000044004400000000004400640064005435
:1037AC000054004C004C0044000000000038004461
:1037BC000044004400440044004400380000000071
:1037CC000078004400440044007800400040004071
:1037DC000000000000380044004400440044004451
:1037EC0000540038000400000078004400440044F9
:1037FC0000780048004800440000000000380044F5
:10380C0000400030000800040044003800000000B4
:10381C00007C0010001000100010001000100010B0
:10382C0000000000004400440044004400440044F4
:10383C00004400380000000000440044004400280C
:10384C000028002800100010000000000044004474
:10385C00005400540054006C0028002800000000A4
:10386C000044002800280010001000280028004404
:10387C000000000000440044002800280010001044
:10388C000010001000000000007C00040008001074
:10389C00001000200040007C000000000018001008
:1038AC000010001000100010001000100010001884
:1038BC00002000200010001000100010000800086C
:1038CC00000000000030001000100010001000106C
:1038DC0000100010001000300010002800280044D8
:1038EC0000000000000000000000000000000000CC
:1038FC00000000000000000000000000000000FEBE
:10390C00002000100000000000000000000000007B
:10391C00000000000000000000380044003C00449F
:10392C00004C0034000000000040004000580064CF
:10393C000044004400640058000000000000000037
:10394C0000380044004000400044003800000000F3
:10395C00000400040034004C00440044004C0034CB
:10396C00000000000000000000380044007C004013
:10397C000044003800000000000C0010007C001017
:10398C0000100010001000100000000000000000EB
:10399C000034004C00440044004C00340004007817
:1039AC0000400040005800640044004400440044BF
:1039BC00000000000010000000700010001000104B
:1039CC00001000100000000000100000007000103B
:1039DC000010001000100010001000E0004000402B
:1039EC0000480050006000500048004400000000F7
:1039FC0000700010001000100010001000100010DB
:103A0C000000000000000000007800540054005436
:103A1C000054005400000000000000000058006436
:103A2C00004400440044004400000000000000007A
:103A3C0000380044004400440044003800000000FA
:103A4C00000000000058006400440044006400586A
:103A5C0000400040000000000034004C00440044D2
:103A6C00004C003400040004000000000058006406
:103A7C00004000400040004000000000000000003A
:103A8C0000380044003000080044003800000000FA
:103A9C0000200020007800200020002000200018CA
:103AAC0000000000000000000044004400440044FA
:103ABC00004C0034000000000000000000440044F2
:103ACC000028002800280010000000000000000062
:103ADC00005400540054006C002800280000000022
:103AEC0000000000004400280010001000280044D2
:103AFC0000000000000000000044004400280028E2
:103B0C00001000100010006000000000007C000895
:103B1C00001000200040007C000000000018001085
:103B2C0000100010002000200010001000100018E1
:103B3C0000100010001000100010001000100010F9
:103B4C0000100010003000100010001000080008D9
:103B5C000010001000100030000000000000007485
:103B6C00004C000000000000000000004D6F6E646F
:103B7C0061790054756573646179005765646E658D
:103B8C00736461790054687572736461790046726C
:103B9C00696461790053617475726461790053755D
:103BAC006E64617900253032643A253032643A25EE
:103BBC0030326400253032642F253032642F2532A8
:103BCC0064002E2E0053657420486F757273005379
:103BDC006574204D696E757465730053657420446B
:103BEC00617900536574204D6F6E74680053657471
:103BFC0020416C61726D003C3300202000414C412F
:103C0C00524D0000000000000000000102030406F9
:103C1C00070809232D302B2000686C4C0065666763
:103C2C004546470030313233343536373839414226
:103C3C0043444546003031323334353637383961F8
:083C4C0062636465660000007C
:043C5400E90000087B
:043C5800C10000089F
:103C5C00070A00000C34000800127A001000002043
:103C6C000000000000000000000000000000000048
:103C7C000000000000000000000000000000000038
:103C8C000000000000000000000000000000000028
:103C9C000000000000000000000000000000000018
:103CAC000000000000000000000000000000000008
:103CBC0000000000000000000000000000000000F8
:0400000508002AC500
:00000001FF
